:100000000C9434000C9451000C9451000C94510049
:100010000C9451000C9451000C9451000C9451001C
:100020000C9451000C9451000C945F020C945100FC
:100030000C9451000C944E020C9451000C945100FD
:100040000C9451000C9451000C9451000C945100EC
:100050000C9451000C9451000C9451000C945100DC
:100060000C9451000C94510011241FBECFEFD8E026
:10007000DEBFCDBF12E0A0E0B1E0E0EAFDE002C0EB
:1000800005900D92AC31B107D9F712E0ACE1B2E0C6
:1000900001C01D92A232B107E1F70E94D0020C9478
:1000A000CE060C940000DF93CF9300D0CDB7DEB71F
:1000B00090E080FF02C0599A01C05998589A589808
:1000C0009F5F963011F08695F4CF5A9A5A9880E245
:1000D00090E09A83898389819A8101979A838983A1
:1000E0000196C9F70F900F90CF91DF9108950F936C
:1000F0001F93182F062F982F92959F70662309F44F
:10010000906180911C02882319F0892F806202C0BF
:10011000892F8F7D0E945300002319F0912F9F7E1D
:1001200002C0912F906180911C02882319F0892FC1
:10013000806202C0892F8F7D0E9453001F910F9112
:100140000895DF93CF9300D0CDB7DEB781E061E0B3
:100150000E94770080EA9FE09A83898389819A814F
:1001600001979A8389830196C9F70F900F90CF91D9
:10017000DF910895DF93CF9300D0CDB7DEB782E053
:1001800061E00E94770080EA9FE09A8389838981F9
:100190009A8101979A8389830196C9F70F900F90EE
:1001A000CF91DF91089561E00E9477000895882340
:1001B00011F088E001C08CE061E00E9477000895B2
:1001C000DF93CF9300D0CDB7DEB7982F662311F41D
:1001D00080E801C080EC892B61E00E94770080E21A
:1001E00090E09A83898389819A8101979A83898390
:1001F0000196C9F70F900F90CF91DF910895DF938B
:10020000CF9300D0CDB7DEB7589859985A98509AE6
:10021000519A529A80E361E00E94770080EA9FE061
:100220009A83898389819A8101979A838983019628
:10023000C9F780E361E00E94770080EA9FE09A833B
:10024000898389819A8101979A8389830196C9F765
:1002500080E361E00E94770080EA9FE09A838983CF
:1002600089819A8101979A8389830196C9F782E0EF
:1002700061E00E94770080EA9FE09A838983898108
:100280009A8101979A8389830196C9F788E261E090
:100290000E94770080EA9FE09A83898389819A810E
:1002A00001979A8389830196C9F78CE00E94D30055
:1002B0000E94A10080E060E00E94E0000F900F909B
:1002C000CF91DF91089580931C0280E061E00E944D
:1002D0007700089560E00E9477000895CF93DF9340
:1002E000EC0104C060E00E94770021968881882399
:1002F000C9F7DF91CF910895AF92BF92CF92DF926D
:10030000EF92FF920F931F93DF93CF93CDB7DEB79A
:1003100065970FB6F894DEBF0FBECDBFB42E00E0D8
:1003200007C00F5F20E030E040E251E40E94F70296
:100330000B15B8F30E94F10369837A838B839C8346
:1003400089819A81AB81BC81B7FD02C0AA2411C00A
:1003500089819A81AB81BC81B095A095909581955A
:100360009F4FAF4FBF4F89839A83AB83BC83AA242F
:10037000A394BB2019F4DD24D39434C0CB2CDD240A
:10038000D39425E0E22EF12CEC0EFD1E69817A81DA
:100390008B819C8187010D0D111D2AE030E040E02A
:1003A00050E00E945A06605DF801608369817A819D
:1003B0008B819C812AE030E040E050E00E945A06A8
:1003C000C901DA0189839A83AB83BC83D394CA942D
:1003D000E9F69B2D9F5FE90EF11C8CE2F70180830B
:1003E000D92ED39495E0E92EF12CEC0EFD1E6981F7
:1003F0007A818B819C8187010D0D111D2AE030E0EF
:1004000040E050E00E945A06605DF8016083698117
:100410007A818B819C812AE030E040E050E00E94AC
:100420005A06C901DA0189839A83AB83BC830D2DF7
:100430000F5F89819A81AB81BC810097A105B105CD
:1004400011F0D02ED4CFAA2011F40D2D0FC0E00E44
:10045000F11C8DE2F701808309C0F701E00FF11D67
:10046000808160E00E947700015005C085E0E82EA1
:10047000F12CEC0EFD1E002381F765960FB6F89463
:10048000DEBF0FBECDBFCF91DF911F910F91FF90C7
:10049000EF90DF90CF90BF90AF9008951F920F9292
:1004A0000FB60F9211248F93809121028F5F80935A
:1004B00021028F910F900FBE0F901F9018951F92E1
:1004C0000F920FB60F9211242F934F935F938F9338
:1004D0009F93AF93BF9310928500109284008091F8
:1004E000810086FF13C0809181008360809381002A
:1004F000809181008F7B8093810010921D02109269
:100500001E0210921F02109220021CC01092810045
:1005100010926F0040918600509187002091210237
:10052000922F990F990F80E0840F951FA0E0B0E003
:1005300080931D0290931E02A0931F02B09320028D
:1005400010922102BF91AF919F918F915F914F9136
:100550002F910F900FBE0F901F901895F89480EC7C
:100560008093810081E280936F0078945F9A88E2A3
:100570008A95F1F75F98809181008823E1F7609177
:100580001D0270911E0280911F02909120020E9414
:1005900045042FE539E24BE05EE30E94F70208953F
:1005A000CF93DF930E94FF0081E00E946301579A7E
:1005B00080E060E00E94E00080E091E00E946E0137
:1005C000C8ECD0E080E061E00E94E0000E94AE0252
:1005D00042E00E947C0189E091E00E946E0188E87F
:1005E00093E1FE013197F1F70197D9F7EBCFA0E244
:1005F000B0E0EDEFF2E00C94970669837A838B8389
:100600009C832D833E834F835887CE010196BE0184
:10061000675F7F4F0E94E205CE010596BE016F5EC7
:100620007F4F0E94E2059985923088F08989823057
:10063000C8F0943019F4823051F404C0843029F4A5
:10064000923081F483E191E0C6C0923049F420E019
:100650009A858A89981321E02A87CE010996BBC022
:10066000823049F420E09A858A89981321E02A8B08
:10067000CE014196B0C02D843E844F8458886D8849
:100680007E888F88988CEE24FF248701AA24BB24BF
:10069000650140E050E060E070E0E0E0F0E0C101C2
:1006A00081709070892BE9F0E60CF71C081D191D6C
:1006B0009A01AB012A0D3B1D4C1D5D1D80E090E0B1
:1006C000A0E0B0E0E614F7040805190520F481E085
:1006D00090E0A0E0B0E0BA01A901480F591F6A1FDD
:1006E0007B1FAA0CBB1CCC1CDD1C97FE08C081E044
:1006F00090E0A0E0B0E0A82AB92ACA2ADB2A319605
:10070000E032F10549F0660C771C881C991C569460
:10071000479437942794C3CFFA85EA892B893C897B
:100720008B859C85280F391F2E5F3F4F17C0CA014C
:1007300081709070892B61F016950795F794E79476
:1007400080E090E0A0E0B0E8E82AF92A0A2B1B2B11
:1007500076956795579547952F5F3F4F77FDE7CF84
:100760000CC0440F551F661F771F17FD4160EE0C2C
:10077000FF1C001F111F21503040403090E05907EE
:1007800090E0690790E4790760F32B8F3C8FDB01E1
:10079000CA018F779070A070B07080349105A10568
:1007A000B10561F447FD0AC0E114F104010511052A
:1007B00029F0405C5F4F6F4F7F4F40781A8EFE17D5
:1007C00011F081E08A8F4D8F5E8F6F8F78A383E069
:1007D000898FCE0149960E940D05A096E2E10C9406
:1007E000B306ACE0B0E0E7EFF3E00C94A706698352
:1007F0007A838B839C83CE010196BE016B5F7F4F12
:100800000E94E2058D81823061F1823050F18430A6
:1008100021F48E81882351F12EC02F81388537FD38
:1008200020C06E812F3131051CF06623F9F023C002
:100830008EE190E0821B930B29853A854B855C8580
:1008400004C056954795379527958A95D2F7662324
:10085000B1F050954095309521953F4F4F4F5F4FE8
:100860000EC020E030E040E050E009C02FEF3FEF45
:100870004FEF5FE704C020E030E040E050E8B9010E
:10088000CA012C96E2E00C94C306A8E0B0E0EBE4C9
:10089000F4E00C949F067B018C01611571058105C4
:1008A000910519F482E0898360C083E089838EE139
:1008B000C82ED12CDC82CB82ED82FE820F8318877A
:1008C000C801B7010E94BE04FC013197F7FF3BC08D
:1008D000222733272E1B3F0B57016801022E04C02D
:1008E000D694C794B794A7940A94D2F740E050E006
:1008F00060E070E081E090E0A0E0B0E004C0880F2C
:10090000991FAA1FBB1F2A95D2F70197A109B10908
:100910008E219F21A023B1230097A105B10521F0CD
:1009200041E050E060E070E04A295B296C297D29B4
:100930004D835E836F8378878EE190E08E1B9F0BE3
:100940009C838B8312C0309781F00E2E04C0EE0C76
:10095000FF1C001F111F0A94D2F7ED82FE820F8345
:100960001887CE1ADF0ADC82CB821A82CE0101966A
:100970000E940D052896EAE00C94BB06EF92FF92C8
:100980000F931F937B018C0180E0E81680E0F8064E
:1009900081E0080780E0180788F48FEFE816F1047B
:1009A0000105110531F028F088E090E0A0E0B0E00A
:1009B00017C080E090E0A0E0B0E012C080E0E81650
:1009C00080E0F80680E0080781E0180728F088E159
:1009D00090E0A0E0B0E004C080E190E0A0E0B0E0F2
:1009E00020E230E040E050E0281B390B4A0B5B0B63
:1009F00004C016950795F794E7948A95D2F7F70106
:100A0000E55EFE4F8081281B310941095109C9016A
:100A10001F910F91FF90EF900895DF92EF92FF9258
:100A20000F931F93FC01E480F58006811781D1802C
:100A30008081823048F480E090E0A0E1B0E0E82AD4
:100A4000F92A0A2B1B2BA5C0843009F49FC08230E1
:100A500021F4EE24FF24870105C0E114F10401050F
:100A6000110519F4E0E0F0E096C0628173819FEF18
:100A7000623879070CF05BC022E83FEF261B370B8A
:100A80002A3131052CF020E030E040E050E02AC06F
:100A9000B801A701022E04C0769567955795479532
:100AA0000A94D2F781E090E0A0E0B0E004C0880FA3
:100AB000991FAA1FBB1F2A95D2F70197A109B10957
:100AC0008E219F21A023B1230097A105B10521F01C
:100AD00081E090E0A0E0B0E09A01AB01282B392B37
:100AE0004A2B5B2BDA01C9018F779070A070B07030
:100AF00080349105A105B10539F427FF09C0205CB8
:100B00003F4F4F4F5F4F04C0215C3F4F4F4F5F4FF0
:100B1000E0E0F0E02030A0E03A07A0E04A07A0E4DF
:100B20005A0710F0E1E0F0E079018A0127C060384F
:100B3000710564F5FB01E158FF4FD801C7018F77BC
:100B40009070A070B07080349105A105B10539F4A2
:100B5000E7FE0DC080E490E0A0E0B0E004C08FE3C9
:100B600090E0A0E0B0E0E80EF91E0A1F1B1F17FF7F
:100B700005C016950795F794E794319687E016958A
:100B80000795F794E7948A95D1F705C0EE24FF24E2
:100B90008701EFEFF0E06E2F679566276795902F3E
:100BA0009F77D794DD24D7948E2F8695492F462B97
:100BB000582F5D29B701CA011F910F91FF90EF9047
:100BC000DF900895FC01DB01408151812281622F79
:100BD0006F7770E0221F2227221F9381892F880FB1
:100BE000822B282F30E0991F9927991F11969C93EB
:100BF000119721153105A9F54115510561057105BB
:100C000011F482E037C082E89FEF13969C938E9395
:100C100012979A01AB0167E0220F331F441F551F43
:100C20006A95D1F783E08C930DC0220F331F441FC8
:100C3000551F12968D919C911397019713969C9333
:100C40008E931297203080E0380780E0480780E4D8
:100C5000580758F314962D933D934D935C93179733
:100C600008952F3F310579F441155105610571054E
:100C700019F484E08C93089564FF03C081E08C93A1
:100C800012C01C9210C02F57304013963C932E93E5
:100C9000129783E08C9387E0440F551F661F771FE0
:100CA0008A95D1F7706414964D935D936D937C9300
:100CB0001797089597FB092E05260ED057FD04D0EF
:100CC00014D00AD0001C38F45095409530952195E9
:100CD0003F4F4F4F5F4F0895F6F790958095709571
:100CE00061957F4F8F4F9F4F0895A1E21A2EAA1B47
:100CF000BB1BFD010DC0AA1FBB1FEE1FFF1FA217CC
:100D0000B307E407F50720F0A21BB30BE40BF50BC8
:100D1000661F771F881F991F1A9469F76095709551
:100D2000809590959B01AC01BD01CF0108952F9254
:100D30003F924F925F926F927F928F929F92AF926B
:100D4000BF92CF92DF92EF92FF920F931F93CF93B8
:100D5000DF93CDB7DEB7CA1BDB0B0FB6F894DEBF4F
:100D60000FBECDBF09942A88398848885F846E8475
:100D70007D848C849B84AA84B984C884DF80EE80BF
:100D8000FD800C811B81AA81B981CE0FD11D0FB6C8
:100D9000F894DEBF0FBECDBFED010895F894FFCFEC
:100DA00044697374616E63650020636D20202020A8
:100DB00020200000000000000000000001020203EB
:100DC00003030304040404040404040505050505E1
:100DD00005050505050505050505050606060606BE
:100DE00006060606060606060606060606060606A3
:100DF000060606060606060606060607070707078E
:100E00000707070707070707070707070707070772
:100E10000707070707070707070707070707070762
:100E20000707070707070707070707070707070752
:100E3000070707070707070707070708080808083D
:100E40000808080808080808080808080808080822
:100E50000808080808080808080808080808080812
:100E60000808080808080808080808080808080802
:100E700008080808080808080808080808080808F2
:100E800008080808080808080808080808080808E2
:100E900008080808080808080808080808080808D2
:100EA00008080808080808080808080808080808C2
:0C0EB000080808080808080808080800DE
:00000001FF
