:03000000020006F5
:08005F00E4F508F509020003B5
:030003000200B345
:10006700AE82AF83C28CC28D438901EE4F60167595
:100077008A18758CFCD28C1EBEFF011F308DFDC205
:100087008CC28D80E622AE82AF83C28CC28D740F84
:100097005EFC7D0074FFC39CF58A8F0674FFC39EC8
:1000A700F58CD28C308DFDC28CC28D221201CF759A
:1000B7008201120287750C0075820012025890089F
:1000C7001675F080120299750C017582001202589C
:1000D7008508828509830508E4B508020509120722
:1000E7002AAC82AD83AEF0FF750F008C828D838EB4
:1000F700F0EF1202C790082375F080120299C280B0
:100107009001F4120067D2809001F4120067750C19
:090117000175820012025880AE4D
:1008160048656C6C6F20576F726C64210020202035
:030826002020008F
:10012000752702752800AE27AF28152774FFB5275D
:10013000021528EE4F70EF227527FA752800AE27BA
:10014000AF28152774FFB527021528EE4F70EF2250
:10015000AF827E00EF30E004D2B18002C2B1D2B0F3
:10016000C2B0EFC313FF0EBE060040E8D2B2C2B267
:10017000752702752800AE27AF28152774FFB5270D
:10018000021528EE4F70EF22E582FFC4540FFEE502
:100190000B60055306EF8003430610E50A60054334
:1001A000062080035306DF8E82C007120150D0075D
:1001B000E50B600674EF5FFE800474104FFEE50AE5
:1001C000600543062080035306DF8E82020150C281
:1001D000B0C2B1C2B2750B01758230120188120132
:1001E00038750B01758230120188120138750B01C8
:1001F000758230120188120138750B017582021266
:100200000188120138750B017582281201881201CC
:100210003875820C12023B120223750C00758200A5
:10022000020258750B0175820112018802013875AE
:100230000B01758202120188020138750B0102015F
:1002400088E582FF6009750B0175820802018875D7
:100250000B0175820C020188AF82E50C60047EC040
:1002600080027E80EF4206750B018E821201887536
:100270000D02750E00AE0DAF0E150D74FFB50D021B
:10028000150EEE4F70EF2285820A750B0175820004
:10029000020188750B00020188AD82AE83AFF08D3C
:1002A000828E838FF0120786FC601B750B008C8298
:1002B000C007C006C005120188D005D006D0070DC2
:1002C000BD00DC0E80D922AC82AD83AEF0FF7B0096
:1002D000C3EB950F50270BC003C004C005C006C078
:1002E0000790000075F02074411204B3AC82AD8316
:1002F000AEF0FFE58124FCF581D00380D38C828DA4
:10030000838EF0EF12061C85821185831285F0130F
:10031000F514E51430E726E511F4FCE512F4FDE5EB
:1003200013F4FEE514F4FF74012CF511E43DF5120D
:10033000E43EF513E43FF5147526018003752600AD
:100340007E01E50F6066751001AC0FEC6053E5109F
:100350002415F975270AE4F528F529F52A8511826F
:100360008512838513F0E514C004C001120689AA22
:1003700082D00174302AF775270AE4F528F529F5AB
:100380002A8511828512838513F0E5141206D8851B
:10039000821185831285F013F514D00405101C809A
:1003A000AAE5102415F8762CE51004FE8E07EF243C
:1003B00015F975270AE4F528F529F52A85118285AE
:1003C00012838513F0E514C007C001120689AA82C2
:1003D000D00174302AF775270AE4F528F529F52AA3
:1003E0008511828512838513F0E5141206D8858263
:1003F0001185831285F013F514D0070FE51145120E
:100400004513451470A88F06E5266008EF2415F8FB
:10041000762D8003EF14FE8E07EF6013EF2415F99D
:100420008782750B00C007120188D0071F80EA225F
:10043000F9E52745284529452A60777800C308E56E
:100440002A20E73BE52725E0F527E52833F528E5D1
:100450002933F529E52A33F52AE5829527E58395A1
:1004600028E5F09529E9952A50D4C3E52A13F52A01
:10047000E52913F529E52813F528E52713F527E5E0
:10048000829527FCE5839528FDE5F09529FEE99501
:100490002A4007F98EF08D838C82C3E52A13F52A52
:1004A000E52913F529E52813F528E52713F527D8BD
:1004B000CEE9221205BBBC0003020758EF60FA30F8
:1004C000D502B2D1E583B4FF0302076EE582B4FF23
:1004D0000302076E258340072482400B020758243D
:1004E0008314500302076EF582EA8DF0A4A8F0EAA7
:1004F0008EF0A428F8E435F0F9EB8DF0A428E93566
:10050000F0F9E433CA8FF0A429F9EA35F0FAEBF8F0
:100510008EF0A429F9EA35F0FAE433FBEC8DF0A46F
:1005200029F9EA35F0FAE43BFBE88FF0A42AFAEB6C
:1005300035F0FBE433CCFD8EF0A42AFAEB35F0FB6A
:10054000E43CFCED8FF0A42BFBEC35F0FC20E70342
:100550001205E9020737FB7A20E4FCFDFEFFE58285
:100560002582F582E58333F583E5F033F5F0EB334F
:10057000FB4017DAE98042E5822582F582E5833384
:10058000F583E5F033F5F0EB33FBEC33FCED33FDB5
:10059000EE33FEEF33FFEC9527ED9528EE9529EF2E
:1005A000952A4013EC9527FCED9528FDEE9529FE44
:1005B000EF952AFF438201DABEEB22AA82AB83A227
:1005C000F73392D1F5826002D2F7ACF0E58124F9DD
:1005D000F8E6FD08E6FE0886F008E6A2F73392D5B5
:0905E000F5836002D2F7AFF022AE
:06003500E478FFF6D8FD9F
:1005E9007804EC7011E58224F8500AF582E4C9CA4E
:1005F900CBFCD8EF22EC7820058220E713D58201C5
:1006090022C3E933F9EA33FAEB33FBEC33FCD8EADA
:10061900158222120677C3749E9582403979001299
:1006290007CF30D126E9F42401F582EAF43400F544
:1006390083EBF43400F5F0ECF43400700AE58245FC
:100649008345F0700122E430E70F22EC20E714899A
:10065900828A838BF02230D10AE4F582F583F5F0A2
:0E06690074802274FFF582F583F5F0747F2211
:100013007900E94400601B7A00900829780175A0F3
:1000230000E493F2A308B8000205A0D9F4DAF2754C
:02003300A0FF2C
:10067700AA82AB83A2F73392D1F5826002D2F7AC9C
:02068700F0225F
:10003B007800E84400600A790175A000E4F309D860
:10004B00FC7800E84400600C7900900001E4F0A318
:04005B00D8FCD9FAFA
:10068900F9C2D530E715D2D5E4C39582F582E49550
:1006990083F583E495F0F5F0E499F9E52A30E71557
:1006A900E4C39527F527E49528F528E49529F52944
:1006B900E4952AF52AE912043030D512E4C395826B
:1006C900F582E49583F583E495F0F5F0E49922FB4E
:1006D900C2D530E715D2D5E4C39582F582E4958376
:1006E900F583E495F0F5F0E49BFBE52A30E717B2D2
:1006F900D5E4C39527F527E49528F528E49529F548
:1007090029E4952AF52AEB12055630D513FBE4C3E3
:100719009582F582E49583F583E495F0F5F0E49B01
:1007290022AC83AB827A007900748E0207ABB98060
:1007390003EA13B34010EA2401FAE43BFBE43CFC6E
:1007490050047C800582BC000EBB000BBA0008E493
:10075900F5F0F583F58222A2D1E582138CF092F7A8
:100769008B838A8222E4F583F58275F080F4A2D125
:0D0779001322E4F583F58275F0C0747F2231
:0D00060075812A120812E5826003020003D2
:1007860020F71430F6148883A88220F507E6A8839C
:1007960075830022E280F7E49322E022FCABF0AA04
:1007A60083A982749EF582C2D1EC30E716D2D1E9D4
:1007B600F42401F9EAF43400FAEBF43400FBECF427
:1007C6003400FC1205E90207376040F82582500222
:1007D60074FFF582E824F8501ECCCBCAF9E4CC2489
:1007E600F85014CBCAF9E4CB24F8500BCAF9E4CA82
:1007F60024F8500379002224086010F8C3EC13FC97
:10080600EB13FBEA13FAE913F9D8F12275820022F9
:00000001FF
