:100000000EC01CC227C026C025C007C223C022C004
:1000100021C020C01FC01EC01DC01CC01BC0112499
:100020001FBECFE5D2E0DEBFCDBF11E0A0E6B0E05D
:10003000E8EFFCE002C005900D92AC37B107D9F7AC
:1000400011E0ACE7B1E001C01D92A238B107E1F7C1
:1000500056D250C6D5CFDF93CF9300D0CDB7DEB701
:1000600090E080FF02C0C19A01C0C198C49AC498B0
:100070009F5F963011F08695F4CFC09AC09880E1CA
:1000800090E09A83898389819A8101979A838983F1
:100090000196C9F70F900F90CF91DF9108950F93BC
:1000A0001F93182F062F982F92959F70662309F49F
:1000B000906180917C01882319F0892F806202C0B1
:1000C000892F8F7DC8DF002319F0912F9F7E02C0FA
:1000D000912F906180917C01882319F0892F806293
:1000E00002C0892F8F7DB7DF1F910F910895DF9395
:1000F000CF9300D0CDB7DEB781E061E0D0DF80EDF7
:1001000097E09A83898389819A8101979A83898369
:100110000196C9F70F900F90CF91DF910895DF936B
:10012000CF9300D0CDB7DEB782E061E0B8DF80EDDD
:1001300097E09A83898389819A8101979A83898339
:100140000196C9F70F900F90CF91DF91089561E06C
:10015000A6DF0895882311F088E001C08CE061E0FB
:100160009EDF0895DF93CF9300D0CDB7DEB7982FF1
:10017000662311F480E801C080EC892B61E08FDFF9
:1001800080E190E09A83898389819A8101979A839B
:1001900089830196C9F70F900F90CF91DF91089551
:1001A000DF93CF9300D0CDB7DEB7C498C198C09885
:1001B000BC9AB99AB89A80E361E071DF80ED97E06C
:1001C0009A83898389819A8101979A838983019689
:1001D000C9F780E361E063DF80ED97E09A8389836C
:1001E00089819A8101979A8389830196C9F780E36F
:1001F00061E055DF80ED97E09A83898389819A8158
:1002000001979A8389830196C9F782E061E047DF0D
:1002100080ED97E09A83898389819A8101979A83F7
:1002200089830196C9F788E261E039DF80ED97E0C4
:100230009A83898389819A8101979A838983019618
:10024000C9F78CE084DF53DF80E060E08BDF0F9044
:100250000F90CF91DF91089580937C0180E061E061
:100260001EDF089560E01BDF0895CF93DF93EC015C
:1002700003C060E014DF219688818823D1F7DF91E5
:10028000CF910895AF92BF92CF92DF92EF92FF92FB
:100290000F931F93DF93CF93CDB7DEB765970FB65C
:1002A000F894DEBF0FBECDBFB42E00E006C00F5FD6
:1002B00020E030E040E251E440D10B15C0F332D2EF
:1002C00069837A838B839C8389819A81AB81BC818A
:1002D000B7FD02C0AA2411C089819A81AB81BC817B
:1002E000B095A095909581959F4FAF4FBF4F898353
:1002F0009A83AB83BC83AA24A394BB2019F4DD2486
:10030000D39432C0CB2CDD24D39425E0E22EF12C03
:10031000EC0EFD1E69817A818B819C8187010D0D18
:10032000111D2AE030E040E050E070D4605DF8013B
:10033000608369817A818B819C812AE030E040E092
:1003400050E064D4C901DA0189839A83AB83BC830A
:10035000D394CA94F9F69B2D9F5FE90EF11C8CE2B1
:10036000F7018083D92ED39495E0E92EF12CEC0E81
:10037000FD1E69817A818B819C8187010D0D111D84
:100380002AE030E040E050E041D4605DF801608355
:1003900069817A818B819C812AE030E040E050E0E5
:1003A00035D4C901DA0189839A83AB83BC830D2DCF
:1003B0000F5F89819A81AB81BC810097A105B1054E
:1003C00011F0D02ED6CFAA2011F40D2D0EC0E00EC4
:1003D000F11C8DE2F701808308C0F701E00FF11DE9
:1003E000808160E05CDE015005C085E0E82EF12CE4
:1003F000EC0EFD1E002389F765960FB6F894DEBF5C
:100400000FBECDBFCF91DF911F910F91FF90EF9065
:10041000DF90CF90BF90AF9008951F920F920FB6CC
:100420000F9211248F93809181018F5F80938101BE
:100430008F910F900FBE0F901F9018951F920F92E3
:100440000FB60F9211242F935F936F937F938F9327
:100450009F93AF93BF9305B600FE06C083E083BFB2
:1004600085B78E7F85BF1AC013BE1BBE85B78D7F33
:1004700085BF22B78091810190E06FEF70E0B4D327
:10048000820F911DAA2797FDA095BA2F80937D0119
:1004900090937E01A0937F01B0938001BF91AF91B3
:1004A0009F918F917F916F915F912F910F900FBED0
:1004B0000F901F901895F894BB9A12BE109281016C
:1004C00085B7836085BF82E089BF80E48BBF789465
:1004D000C39A8AE18A95F1F7C3988BB78823E9F725
:1004E00060917D0170917E0180917F0190918001EA
:1004F0006AD12FE539E24BE05EE31FD00895CF9338
:10050000DF934EDE81E0A8DE80E060E02BDE80E657
:1005100090E0ABDEC8ECD0E080E061E023DECBDF32
:1005200042E0B0DE89E690E0A0DE88E893E1FE01DB
:100530003197F1F70197D9F7EFCFA0E2B0E0E2EA07
:10054000F2E0A1C369837A838B839C832D833E83EE
:100550004F835887CE010196BE01675F7F4FCCD293
:10056000CE010596BE016F5E7F4FC6D2998592304F
:1005700088F089898230C8F0943019F4823051F4BF
:1005800004C0843029F4923081F483E790E0C6C03F
:10059000923049F420E09A858A89981321E02A87CD
:1005A000CE010996BBC0823049F420E09A858A8941
:1005B000981321E02A8BCE014196B0C02D843E8451
:1005C0004F8458886D887E888F88988CEE24FF240D
:1005D0008701AA24BB24650140E050E060E070E0A0
:1005E000E0E0F0E0C10181709070892BE9F0E60C49
:1005F000F71C081D191D9A01AB012A0D3B1D4C1D4E
:100600005D1D80E090E0A0E0B0E0E614F70408058E
:10061000190520F481E090E0A0E0B0E0BA01A90162
:10062000480F591F6A1F7B1FAA0CBB1CCC1CDD1C6A
:1006300097FE08C081E090E0A0E0B0E0A82AB92AC7
:10064000CA2ADB2A3196E032F10549F0660C771CA4
:10065000881C991C5694479437942794C3CFFA85E5
:10066000EA892B893C898B859C85280F391F2E5F51
:100670003F4F17C0CA0181709070892B61F01695A9
:100680000795F794E79480E090E0A0E0B0E8E82ACE
:10069000F92A0A2B1B2B76956795579547952F5F5F
:1006A0003F4F77FDE7CF0CC0440F551F661F771FE4
:1006B00017FD4160EE0CFF1C001F111F2150304040
:1006C000403090E0590790E0690790E4790760F3C3
:1006D0002B8F3C8FDB01CA018F779070A070B070B8
:1006E00080349105A105B10561F447FD0AC0E1140C
:1006F000F1040105110529F0405C5F4F6F4F7F4FFA
:1007000040781A8EFE1711F081E08A8F4D8F5E8F30
:100710006F8F78A383E0898FCE01499618D1A09678
:10072000E2E1CDC2ACE0B0E0E7E9F3E0BCC269834E
:100730007A838B839C83CE010196BE016B5F7F4FD2
:10074000DBD18D81823061F1823050F1843021F42F
:100750008E81882351F12EC02F81388537FD20C02E
:100760006E812F3131051CF06623F9F023C08EE134
:1007700090E0821B930B29853A854B855C8504C0EC
:1007800056954795379527958A95D2F76623B1F008
:1007900050954095309521953F4F4F4F5F4F0EC07C
:1007A00020E030E040E050E009C02FEF3FEF4FEF96
:1007B0005FE704C020E030E040E050E8B901CA0142
:1007C0002C96E2E08CC2A8E0B0E0E8EEF3E063C271
:1007D0007B018C01611571058105910519F482E099
:1007E00089835FC083E089838EE1C82ED12CDC82AF
:1007F000CB82ED82FE820F831887C801B70158D0E3
:10080000FC013197F7FF3BC0222733272E1B3F0BFC
:1008100057016801022E04C0D694C794B794A794D8
:100820000A94D2F740E050E060E070E081E090E0B0
:10083000A0E0B0E004C0880F991FAA1FBB1F2A9533
:10084000D2F70197A109B1098E219F21A023B123DD
:100850000097A105B10521F041E050E060E070E0B3
:100860004A295B296C297D294D835E836F837887B4
:100870008EE190E08E1B9F0B9C838B8312C0309780
:1008800081F00E2E04C0EE0CFF1C001F111F0A94F5
:10089000D2F7ED82FE820F831887CE1ADF0ADC8240
:1008A000CB821A82CE01019652D02896EAE00FC27E
:1008B000EF92FF920F931F937B018C0180E0E8166B
:1008C00080E0F80681E0080780E0180788F48FEFE1
:1008D000E816F1040105110531F028F088E090E0F8
:1008E000A0E0B0E017C080E090E0A0E0B0E012C06F
:1008F00080E0E81680E0F80680E0080781E018074D
:1009000028F088E190E0A0E0B0E004C080E190E051
:10091000A0E0B0E020E230E040E050E0281B390BDE
:100920004A0B5B0B04C016950795F794E7948A95DC
:10093000D2F7F701E558FF4F8081281B31094109A3
:100940005109C9011F910F91FF90EF900895DF9217
:10095000EF92FF920F931F93FC01E480F5800681D4
:100960001781D1808081823048F480E090E0A0E15E
:10097000B0E0E82AF92A0A2B1B2BA5C0843009F421
:100980009FC0823021F4EE24FF24870105C0E114CA
:10099000F1040105110519F4E0E0F0E096C0628170
:1009A00073819FEF623879070CF05BC022E83FEF5C
:1009B000261B370B2A3131052CF020E030E040E0D7
:1009C00050E02AC0B801A701022E04C076956795B1
:1009D000579547950A94D2F781E090E0A0E0B0E007
:1009E00004C0880F991FAA1FBB1F2A95D2F7019731
:1009F000A109B1098E219F21A023B1230097A10550
:100A0000B10521F081E090E0A0E0B0E09A01AB01F7
:100A1000282B392B4A2B5B2BDA01C9018F77907079
:100A2000A070B07080349105A105B10539F427FF9D
:100A300009C0205C3F4F4F4F5F4F04C0215C3F4FC8
:100A40004F4F5F4FE0E0F0E02030A0E03A07A0E039
:100A50004A07A0E45A0710F0E1E0F0E079018A01CA
:100A600027C06038710564F5FB01E158FF4FD801DC
:100A7000C7018F779070A070B07080349105A10588
:100A8000B10539F4E7FE0DC080E490E0A0E0B0E0ED
:100A900004C08FE390E0A0E0B0E0E80EF91E0A1F6A
:100AA0001B1F17FF05C016950795F794E79431961D
:100AB00087E016950795F794E7948A95D1F705C0D6
:100AC000EE24FF248701EFEFF0E06E2F6795662795
:100AD0006795902F9F77D794DD24D7948E2F869596
:100AE000492F462B582F5D29B701CA011F910F913D
:100AF000FF90EF90DF900895FC01DB014081518170
:100B00002281622F6F7770E0221F2227221F93819C
:100B1000892F880F822B282F30E0991F9927991F42
:100B200011969C93119721153105A9F54115510591
:100B30006105710511F482E037C082E89FEF1396DA
:100B40009C938E9312979A01AB0167E0220F331F9B
:100B5000441F551F6A95D1F783E08C930DC0220F77
:100B6000331F441F551F12968D919C911397019727
:100B700013969C938E931297203080E0380780E084
:100B8000480780E4580758F314962D933D934D93EE
:100B90005C93179708952F3F310579F4411551055E
:100BA0006105710519F484E08C93089564FF03C016
:100BB00081E08C9312C01C9210C02F5730401396C6
:100BC0003C932E93129783E08C9387E0440F551F3C
:100BD000661F771F8A95D1F7706414964D935D93C5
:100BE0006D937C93179708955527002480FF02C0CA
:100BF000060E571F660F771F6115710521F0969538
:100C00008795009799F7952F802D089597FB092ECA
:100C100005260ED057FD04D014D00AD0001C38F49D
:100C200050954095309521953F4F4F4F5F4F089518
:100C3000F6F790958095709561957F4F8F4F9F4FF8
:100C40000895A1E21A2EAA1BBB1BFD010DC0AA1F0D
:100C5000BB1FEE1FFF1FA217B307E407F50720F025
:100C6000A21BB30BE40BF50B661F771F881F991FA0
:100C70001A9469F760957095809590959B01AC01E9
:100C8000BD01CF0108952F923F924F925F926F92D4
:100C90007F928F929F92AF92BF92CF92DF92EF920C
:100CA000FF920F931F93CF93DF93CDB7DEB7CA1B8D
:100CB000DB0B0FB6F894DEBF0FBECDBF09942A88B8
:100CC000398848885F846E847D848C849B84AA8460
:100CD000B984C884DF80EE80FD800C811B81AA81ED
:100CE000B981CE0FD11D0FB6F894DEBF0FBECDBFB8
:080CF000ED010895F894FFCF17
:100CF80044697374616E63650020636D2020202051
:100D08002020000000000000000000000102020393
:100D18000303030404040404040404050505050589
:100D28000505050505050505050505060606060666
:100D3800060606060606060606060606060606064B
:100D48000606060606060606060606070707070736
:100D5800070707070707070707070707070707071B
:100D6800070707070707070707070707070707070B
:100D780007070707070707070707070707070707FB
:100D880007070707070707070707070808080808E6
:100D980008080808080808080808080808080808CB
:100DA80008080808080808080808080808080808BB
:100DB80008080808080808080808080808080808AB
:100DC800080808080808080808080808080808089B
:100DD800080808080808080808080808080808088B
:100DE800080808080808080808080808080808087B
:100DF800080808080808080808080808080808086B
:0C0E080008080808080808080808080086
:00000001FF
